{
  "contractName": "To_do_app",
  "abi": [
    {
      "inputs": [],
      "stateMutability": "nonpayable",
      "type": "constructor"
    },
    {
      "inputs": [],
      "name": "taskCount",
      "outputs": [
        {
          "internalType": "uint256",
          "name": "",
          "type": "uint256"
        }
      ],
      "stateMutability": "view",
      "type": "function",
      "constant": true
    },
    {
      "inputs": [
        {
          "internalType": "uint256",
          "name": "",
          "type": "uint256"
        }
      ],
      "name": "tasks",
      "outputs": [
        {
          "internalType": "uint256",
          "name": "id",
          "type": "uint256"
        },
        {
          "internalType": "string",
          "name": "content",
          "type": "string"
        },
        {
          "internalType": "bool",
          "name": "remind",
          "type": "bool"
        },
        {
          "internalType": "string",
          "name": "start_time",
          "type": "string"
        },
        {
          "internalType": "string",
          "name": "end_time",
          "type": "string"
        },
        {
          "internalType": "bool",
          "name": "completed",
          "type": "bool"
        },
        {
          "internalType": "string",
          "name": "owner_name",
          "type": "string"
        },
        {
          "internalType": "string",
          "name": "owner_email",
          "type": "string"
        }
      ],
      "stateMutability": "view",
      "type": "function",
      "constant": true
    },
    {
      "inputs": [],
      "name": "userCount",
      "outputs": [
        {
          "internalType": "uint256",
          "name": "",
          "type": "uint256"
        }
      ],
      "stateMutability": "view",
      "type": "function",
      "constant": true
    },
    {
      "inputs": [
        {
          "internalType": "uint256",
          "name": "",
          "type": "uint256"
        }
      ],
      "name": "users",
      "outputs": [
        {
          "internalType": "uint256",
          "name": "id",
          "type": "uint256"
        },
        {
          "internalType": "string",
          "name": "name",
          "type": "string"
        },
        {
          "internalType": "string",
          "name": "email",
          "type": "string"
        }
      ],
      "stateMutability": "view",
      "type": "function",
      "constant": true
    },
    {
      "inputs": [
        {
          "internalType": "string",
          "name": "_content",
          "type": "string"
        },
        {
          "internalType": "string",
          "name": "_start_time",
          "type": "string"
        },
        {
          "internalType": "string",
          "name": "_end_time",
          "type": "string"
        },
        {
          "internalType": "string",
          "name": "_owner_name",
          "type": "string"
        },
        {
          "internalType": "string",
          "name": "_owner_email",
          "type": "string"
        }
      ],
      "name": "createTasks",
      "outputs": [],
      "stateMutability": "payable",
      "type": "function",
      "payable": true
    },
    {
      "inputs": [
        {
          "internalType": "string",
          "name": "_name",
          "type": "string"
        },
        {
          "internalType": "string",
          "name": "_email",
          "type": "string"
        }
      ],
      "name": "createUser",
      "outputs": [],
      "stateMutability": "payable",
      "type": "function",
      "payable": true
    }
  ],
  "bytecode": "0x60806040526000805560006001553480156200001a57600080fd5b50620000e96040518060400160405280601981526020017f77656c636f6d6520746f2074686520746f20646f20446170700000000000000081525060405180604001604052806005815260200164030303a30360dc1b81525060405180604001604052806005815260200164030303a30360dc1b815250604051806040016040528060088152602001672537b730ba3430b760c11b815250604051806040016040528060128152602001716a6f6e617468616e40676d61696c2e636f6d60701b8152506200014b60201b60201c565b62000145604051806040016040528060088152602001673537b730ba3430b760c11b815250604051806040016040528060128152602001716a6f6e617468616e40676d61696c2e636f6d60701b8152506200028260201b60201c565b62000415565b6000805490806200015c83620003ae565b909155505060408051610100810182526000805480835260208084018a81526001858701819052606086018b9052608086018a905260a0860185905260c0860189905260e0860188905292845260028252949092208351815593518051939493620001d09392850192919091019062000308565b50604082015160028201805460ff1916911515919091179055606082015180516200020691600384019160209091019062000308565b50608082015180516200022491600484019160209091019062000308565b5060a082015160058201805460ff191691151591909117905560c082015180516200025a91600684019160209091019062000308565b5060e082015180516200027891600784019160209091019062000308565b5050505050505050565b600180549060006200029483620003ae565b909155505060408051606081018252600180548083526020808401878152848601879052600092835260038252949091208351815593518051939493620002e393850192919091019062000308565b50604082015180516200030191600284019160209091019062000308565b5050505050565b8280546200031690620003d8565b90600052602060002090601f0160209004810192826200033a576000855562000385565b82601f106200035557805160ff191683800117855562000385565b8280016001018555821562000385579182015b828111156200038557825182559160200191906001019062000368565b506200039392915062000397565b5090565b5b8082111562000393576000815560010162000398565b6000600019821415620003d157634e487b7160e01b600052601160045260246000fd5b5060010190565b600181811c90821680620003ed57607f821691505b602082108114156200040f57634e487b7160e01b600052602260045260246000fd5b50919050565b610b2c80620004256000396000f3fe6080604052600436106100545760003560e01c8062efe1971461005957806307973ccf1461006e578063365b98b21461009757806387b162b5146100c65780638d977672146100d9578063b6cb58a51461010d575b600080fd5b61006c610067366004610838565b610123565b005b34801561007a57600080fd5b5061008460015481565b6040519081526020015b60405180910390f35b3480156100a357600080fd5b506100b76100b236600461090a565b61024e565b60405161008e93929190610970565b61006c6100d43660046109a5565b610381565b3480156100e557600080fd5b506100f96100f436600461090a565b610401565b60405161008e989796959493929190610a09565b34801561011957600080fd5b5061008460005481565b60008054908061013283610a92565b909155505060408051610100810182526000805480835260208084018a81526001858701819052606086018b9052608086018a905260a0860185905260c0860189905260e08601889052928452600282529490922083518155935180519394936101a4939285019291909101906106fc565b50604082015160028201805460ff1916911515919091179055606082015180516101d89160038401916020909101906106fc565b50608082015180516101f49160048401916020909101906106fc565b5060a082015160058201805460ff191691151591909117905560c082015180516102289160068401916020909101906106fc565b5060e082015180516102449160078401916020909101906106fc565b5050505050505050565b6003602052600090815260409020805460018201805491929161027090610abb565b80601f016020809104026020016040519081016040528092919081815260200182805461029c90610abb565b80156102e95780601f106102be576101008083540402835291602001916102e9565b820191906000526020600020905b8154815290600101906020018083116102cc57829003601f168201915b5050505050908060020180546102fe90610abb565b80601f016020809104026020016040519081016040528092919081815260200182805461032a90610abb565b80156103775780601f1061034c57610100808354040283529160200191610377565b820191906000526020600020905b81548152906001019060200180831161035a57829003601f168201915b5050505050905083565b6001805490600061039183610a92565b9091555050604080516060810182526001805480835260208084018781528486018790526000928352600382529490912083518155935180519394936103de9385019291909101906106fc565b50604082015180516103fa9160028401916020909101906106fc565b5050505050565b6002602052600090815260409020805460018201805491929161042390610abb565b80601f016020809104026020016040519081016040528092919081815260200182805461044f90610abb565b801561049c5780601f106104715761010080835404028352916020019161049c565b820191906000526020600020905b81548152906001019060200180831161047f57829003601f168201915b5050506002840154600385018054949560ff9092169491935091506104c090610abb565b80601f01602080910402602001604051908101604052809291908181526020018280546104ec90610abb565b80156105395780601f1061050e57610100808354040283529160200191610539565b820191906000526020600020905b81548152906001019060200180831161051c57829003601f168201915b50505050509080600401805461054e90610abb565b80601f016020809104026020016040519081016040528092919081815260200182805461057a90610abb565b80156105c75780601f1061059c576101008083540402835291602001916105c7565b820191906000526020600020905b8154815290600101906020018083116105aa57829003601f168201915b5050506005840154600685018054949560ff9092169491935091506105eb90610abb565b80601f016020809104026020016040519081016040528092919081815260200182805461061790610abb565b80156106645780601f1061063957610100808354040283529160200191610664565b820191906000526020600020905b81548152906001019060200180831161064757829003601f168201915b50505050509080600701805461067990610abb565b80601f01602080910402602001604051908101604052809291908181526020018280546106a590610abb565b80156106f25780601f106106c7576101008083540402835291602001916106f2565b820191906000526020600020905b8154815290600101906020018083116106d557829003601f168201915b5050505050905088565b82805461070890610abb565b90600052602060002090601f01602090048101928261072a5760008555610770565b82601f1061074357805160ff1916838001178555610770565b82800160010185558215610770579182015b82811115610770578251825591602001919060010190610755565b5061077c929150610780565b5090565b5b8082111561077c5760008155600101610781565b634e487b7160e01b600052604160045260246000fd5b600082601f8301126107bc57600080fd5b813567ffffffffffffffff808211156107d7576107d7610795565b604051601f8301601f19908116603f011681019082821181831017156107ff576107ff610795565b8160405283815286602085880101111561081857600080fd5b836020870160208301376000602085830101528094505050505092915050565b600080600080600060a0868803121561085057600080fd5b853567ffffffffffffffff8082111561086857600080fd5b61087489838a016107ab565b9650602088013591508082111561088a57600080fd5b61089689838a016107ab565b955060408801359150808211156108ac57600080fd5b6108b889838a016107ab565b945060608801359150808211156108ce57600080fd5b6108da89838a016107ab565b935060808801359150808211156108f057600080fd5b506108fd888289016107ab565b9150509295509295909350565b60006020828403121561091c57600080fd5b5035919050565b6000815180845260005b818110156109495760208185018101518683018201520161092d565b8181111561095b576000602083870101525b50601f01601f19169290920160200192915050565b8381526060602082015260006109896060830185610923565b828103604084015261099b8185610923565b9695505050505050565b600080604083850312156109b857600080fd5b823567ffffffffffffffff808211156109d057600080fd5b6109dc868387016107ab565b935060208501359150808211156109f257600080fd5b506109ff858286016107ab565b9150509250929050565b60006101008a8352806020840152610a238184018b610923565b905088151560408401528281036060840152610a3f8189610923565b90508281036080840152610a538188610923565b905085151560a084015282810360c0840152610a6f8186610923565b905082810360e0840152610a838185610923565b9b9a5050505050505050505050565b6000600019821415610ab457634e487b7160e01b600052601160045260246000fd5b5060010190565b600181811c90821680610acf57607f821691505b60208210811415610af057634e487b7160e01b600052602260045260246000fd5b5091905056fea264697066735822122008cec923d3151c0a4a4d0a13fc776d8b4885dd6a231b1e679dcbba189146c06064736f6c634300080b0033",
  "immutableReferences": {},
  "source": "// SPDX-License-Identifier: MIT\npragma solidity >=0.4.22 <0.9.0;\n\ncontract To_do_app {\n    uint256 public taskCount = 0;\n    uint256 public userCount = 0;\n\n    struct User {\n        uint256 id;\n        string name;\n        string email;\n    }\n\n    struct Task {\n        uint256 id;\n        string content;\n        bool remind;\n        string start_time;\n        string end_time;\n        bool completed;\n        string owner_name;\n        string owner_email;\n    }\n\n    mapping(uint256 => Task) public tasks;\n    mapping(uint256 => User) public users;\n\n    constructor() {\n        createTasks(\n            \"welcome to the to do Dapp\",\n            \"00:00\",\n            \"00:00\",\n            \"Jonathan\",\n            \"jonathan@gmail.com\"\n        );\n\n        createUser(\"jonathan\", \"jonathan@gmail.com\");\n    }\n\n    function createTasks(\n        string memory _content,\n        string memory _start_time,\n        string memory _end_time,\n        string memory _owner_name,\n        string memory _owner_email\n    ) public payable {\n        taskCount++;\n\n        tasks[taskCount] = Task(\n            taskCount,\n            _content,\n            true,\n            _start_time,\n            _end_time,\n            false,\n            _owner_name,\n            _owner_email\n        );\n    }\n\n    function createUser(string memory _name, string memory _email)\n        public\n        payable\n    {\n        userCount++;\n        users[userCount] = User(userCount, _name, _email);\n    }\n}\n",
  "sourcePath": "/home/z-001/Desktop/to-do app/contracts/to_do_app.sol",
  "compiler": {
    "name": "solc",
    "version": "0.8.11+commit.d7f03943.Emscripten.clang"
  },
  "schemaVersion": "3.4.5",
  "updatedAt": "2022-02-23T10:25:47.639Z",
  "networkType": "ethereum",
  "devdoc": {
    "kind": "dev",
    "methods": {},
    "version": 1
  },
  "userdoc": {
    "kind": "user",
    "methods": {},
    "version": 1
  }
}