{
  "contractName": "To_do_app",
  "abi": [
    {
      "inputs": [],
      "stateMutability": "nonpayable",
      "type": "constructor"
    },
    {
      "inputs": [],
      "name": "taskCount",
      "outputs": [
        {
          "internalType": "uint256",
          "name": "",
          "type": "uint256"
        }
      ],
      "stateMutability": "view",
      "type": "function",
      "constant": true
    },
    {
      "inputs": [
        {
          "internalType": "uint256",
          "name": "",
          "type": "uint256"
        }
      ],
      "name": "tasks",
      "outputs": [
        {
          "internalType": "uint256",
          "name": "id",
          "type": "uint256"
        },
        {
          "internalType": "string",
          "name": "title",
          "type": "string"
        },
        {
          "internalType": "string",
          "name": "content",
          "type": "string"
        },
        {
          "internalType": "string",
          "name": "start_time",
          "type": "string"
        },
        {
          "internalType": "string",
          "name": "end_time",
          "type": "string"
        },
        {
          "internalType": "bool",
          "name": "remind",
          "type": "bool"
        },
        {
          "internalType": "bool",
          "name": "completed",
          "type": "bool"
        },
        {
          "internalType": "string",
          "name": "owner_name",
          "type": "string"
        },
        {
          "internalType": "string",
          "name": "owner_email",
          "type": "string"
        },
        {
          "internalType": "string",
          "name": "date",
          "type": "string"
        },
        {
          "internalType": "string",
          "name": "progress",
          "type": "string"
        }
      ],
      "stateMutability": "view",
      "type": "function",
      "constant": true
    },
    {
      "inputs": [],
      "name": "userCount",
      "outputs": [
        {
          "internalType": "uint256",
          "name": "",
          "type": "uint256"
        }
      ],
      "stateMutability": "view",
      "type": "function",
      "constant": true
    },
    {
      "inputs": [
        {
          "internalType": "uint256",
          "name": "",
          "type": "uint256"
        }
      ],
      "name": "users",
      "outputs": [
        {
          "internalType": "uint256",
          "name": "id",
          "type": "uint256"
        },
        {
          "internalType": "string",
          "name": "name",
          "type": "string"
        },
        {
          "internalType": "string",
          "name": "email",
          "type": "string"
        }
      ],
      "stateMutability": "view",
      "type": "function",
      "constant": true
    },
    {
      "inputs": [
        {
          "internalType": "string",
          "name": "_title",
          "type": "string"
        },
        {
          "internalType": "string",
          "name": "_content",
          "type": "string"
        },
        {
          "internalType": "string",
          "name": "_start_time",
          "type": "string"
        },
        {
          "internalType": "string",
          "name": "_end_time",
          "type": "string"
        },
        {
          "internalType": "string",
          "name": "_owner_name",
          "type": "string"
        },
        {
          "internalType": "string",
          "name": "_owner_email",
          "type": "string"
        },
        {
          "internalType": "string",
          "name": "_date",
          "type": "string"
        },
        {
          "internalType": "string",
          "name": "_progress",
          "type": "string"
        }
      ],
      "name": "createTasks",
      "outputs": [],
      "stateMutability": "payable",
      "type": "function",
      "payable": true
    },
    {
      "inputs": [
        {
          "internalType": "string",
          "name": "_name",
          "type": "string"
        },
        {
          "internalType": "string",
          "name": "_email",
          "type": "string"
        }
      ],
      "name": "createUser",
      "outputs": [],
      "stateMutability": "payable",
      "type": "function",
      "payable": true
    }
  ],
  "bytecode": "0x60806040526000805560006001553480156200001a57600080fd5b50620001506040518060400160405280600a8152602001694669727374207461736b60b01b8152506040518060400160405280601981526020017f77656c636f6d6520746f2074686520746f20646f20446170700000000000000081525060405180604001604052806005815260200164030303a30360dc1b81525060405180604001604052806005815260200164030303a30360dc1b815250604051806040016040528060088152602001672537b730ba3430b760c11b815250604051806040016040528060128152602001716a6f6e617468616e40676d61696c2e636f6d60701b8152506040518060400160405280600f81526020016e4d6f6e204a756e203132203230323360881b8152506040518060400160405280600381526020016203130360ec1b815250620001b260201b60201c565b620001ac604051806040016040528060088152602001673537b730ba3430b760c11b815250604051806040016040528060128152602001716a6f6e617468616e40676d61696c2e636f6d60701b8152506200036960201b60201c565b620004fc565b600080549080620001c38362000495565b9190505550604051806101600160405280600054815260200189815260200188815260200187815260200186815260200160011515815260200160001515815260200185815260200184815260200183815260200182815250600260008054815260200190815260200160002060008201518160000155602082015181600101908051906020019062000258929190620003ef565b506040820151805162000276916002840191602090910190620003ef565b506060820151805162000294916003840191602090910190620003ef565b5060808201518051620002b2916004840191602090910190620003ef565b5060a082015160058201805460c085015115156101000261ff00199315159390931661ffff199091161791909117905560e08201518051620002ff916006840191602090910190620003ef565b5061010082015180516200031e916007840191602090910190620003ef565b5061012082015180516200033d916008840191602090910190620003ef565b5061014082015180516200035c916009840191602090910190620003ef565b5050505050505050505050565b600180549060006200037b8362000495565b909155505060408051606081018252600180548083526020808401878152848601879052600092835260038252949091208351815593518051939493620003ca938501929190910190620003ef565b5060408201518051620003e8916002840191602090910190620003ef565b5050505050565b828054620003fd90620004bf565b90600052602060002090601f0160209004810192826200042157600085556200046c565b82601f106200043c57805160ff19168380011785556200046c565b828001600101855582156200046c579182015b828111156200046c5782518255916020019190600101906200044f565b506200047a9291506200047e565b5090565b5b808211156200047a57600081556001016200047f565b6000600019821415620004b857634e487b7160e01b600052601160045260246000fd5b5060010190565b600181811c90821680620004d457607f821691505b60208210811415620004f657634e487b7160e01b600052602260045260246000fd5b50919050565b610dfb806200050c6000396000f3fe6080604052600436106100555760003560e01c806307973ccf1461005a578063365b98b21461008357806387b162b5146100b25780638d977672146100c7578063b6cb58a5146100fe578063c162453214610114575b600080fd5b34801561006657600080fd5b5061007060015481565b6040519081526020015b60405180910390f35b34801561008f57600080fd5b506100a361009e3660046109b4565b610127565b60405161007a93929190610a1a565b6100c56100c0366004610af2565b61025a565b005b3480156100d357600080fd5b506100e76100e23660046109b4565b6102da565b60405161007a9b9a99989796959493929190610b56565b34801561010a57600080fd5b5061007060005481565b6100c5610122366004610c21565b610776565b6003602052600090815260409020805460018201805491929161014990610d61565b80601f016020809104026020016040519081016040528092919081815260200182805461017590610d61565b80156101c25780601f10610197576101008083540402835291602001916101c2565b820191906000526020600020905b8154815290600101906020018083116101a557829003601f168201915b5050505050908060020180546101d790610d61565b80601f016020809104026020016040519081016040528092919081815260200182805461020390610d61565b80156102505780601f1061022557610100808354040283529160200191610250565b820191906000526020600020905b81548152906001019060200180831161023357829003601f168201915b5050505050905083565b6001805490600061026a83610d9c565b9091555050604080516060810182526001805480835260208084018781528486018790526000928352600382529490912083518155935180519394936102b793850192919091019061091b565b50604082015180516102d391600284019160209091019061091b565b5050505050565b600260205260009081526040902080546001820180549192916102fc90610d61565b80601f016020809104026020016040519081016040528092919081815260200182805461032890610d61565b80156103755780601f1061034a57610100808354040283529160200191610375565b820191906000526020600020905b81548152906001019060200180831161035857829003601f168201915b50505050509080600201805461038a90610d61565b80601f01602080910402602001604051908101604052809291908181526020018280546103b690610d61565b80156104035780601f106103d857610100808354040283529160200191610403565b820191906000526020600020905b8154815290600101906020018083116103e657829003601f168201915b50505050509080600301805461041890610d61565b80601f016020809104026020016040519081016040528092919081815260200182805461044490610d61565b80156104915780601f1061046657610100808354040283529160200191610491565b820191906000526020600020905b81548152906001019060200180831161047457829003601f168201915b5050505050908060040180546104a690610d61565b80601f01602080910402602001604051908101604052809291908181526020018280546104d290610d61565b801561051f5780601f106104f45761010080835404028352916020019161051f565b820191906000526020600020905b81548152906001019060200180831161050257829003601f168201915b505050506005830154600684018054939460ff808416956101009094041693509161054990610d61565b80601f016020809104026020016040519081016040528092919081815260200182805461057590610d61565b80156105c25780601f10610597576101008083540402835291602001916105c2565b820191906000526020600020905b8154815290600101906020018083116105a557829003601f168201915b5050505050908060070180546105d790610d61565b80601f016020809104026020016040519081016040528092919081815260200182805461060390610d61565b80156106505780601f1061062557610100808354040283529160200191610650565b820191906000526020600020905b81548152906001019060200180831161063357829003601f168201915b50505050509080600801805461066590610d61565b80601f016020809104026020016040519081016040528092919081815260200182805461069190610d61565b80156106de5780601f106106b3576101008083540402835291602001916106de565b820191906000526020600020905b8154815290600101906020018083116106c157829003601f168201915b5050505050908060090180546106f390610d61565b80601f016020809104026020016040519081016040528092919081815260200182805461071f90610d61565b801561076c5780601f106107415761010080835404028352916020019161076c565b820191906000526020600020905b81548152906001019060200180831161074f57829003601f168201915b505050505090508b565b60008054908061078583610d9c565b9190505550604051806101600160405280600054815260200189815260200188815260200187815260200186815260200160011515815260200160001515815260200185815260200184815260200183815260200182815250600260008054815260200190815260200160002060008201518160000155602082015181600101908051906020019061081892919061091b565b506040820151805161083491600284019160209091019061091b565b506060820151805161085091600384019160209091019061091b565b506080820151805161086c91600484019160209091019061091b565b5060a082015160058201805460c085015115156101000261ff00199315159390931661ffff199091161791909117905560e082015180516108b791600684019160209091019061091b565b5061010082015180516108d491600784019160209091019061091b565b5061012082015180516108f191600884019160209091019061091b565b50610140820151805161090e91600984019160209091019061091b565b5050505050505050505050565b82805461092790610d61565b90600052602060002090601f016020900481019282610949576000855561098f565b82601f1061096257805160ff191683800117855561098f565b8280016001018555821561098f579182015b8281111561098f578251825591602001919060010190610974565b5061099b92915061099f565b5090565b5b8082111561099b57600081556001016109a0565b6000602082840312156109c657600080fd5b5035919050565b6000815180845260005b818110156109f3576020818501810151868301820152016109d7565b81811115610a05576000602083870101525b50601f01601f19169290920160200192915050565b838152606060208201526000610a3360608301856109cd565b8281036040840152610a4581856109cd565b9695505050505050565b634e487b7160e01b600052604160045260246000fd5b600082601f830112610a7657600080fd5b813567ffffffffffffffff80821115610a9157610a91610a4f565b604051601f8301601f19908116603f01168101908282118183101715610ab957610ab9610a4f565b81604052838152866020858801011115610ad257600080fd5b836020870160208301376000602085830101528094505050505092915050565b60008060408385031215610b0557600080fd5b823567ffffffffffffffff80821115610b1d57600080fd5b610b2986838701610a65565b93506020850135915080821115610b3f57600080fd5b50610b4c85828601610a65565b9150509250929050565b60006101608d8352806020840152610b708184018e6109cd565b90508281036040840152610b84818d6109cd565b90508281036060840152610b98818c6109cd565b90508281036080840152610bac818b6109cd565b89151560a0850152905087151560c084015282810360e0840152610bd081886109cd565b9050828103610100840152610be581876109cd565b9050828103610120840152610bfa81866109cd565b9050828103610140840152610c0f81856109cd565b9e9d5050505050505050505050505050565b600080600080600080600080610100898b031215610c3e57600080fd5b883567ffffffffffffffff80821115610c5657600080fd5b610c628c838d01610a65565b995060208b0135915080821115610c7857600080fd5b610c848c838d01610a65565b985060408b0135915080821115610c9a57600080fd5b610ca68c838d01610a65565b975060608b0135915080821115610cbc57600080fd5b610cc88c838d01610a65565b965060808b0135915080821115610cde57600080fd5b610cea8c838d01610a65565b955060a08b0135915080821115610d0057600080fd5b610d0c8c838d01610a65565b945060c08b0135915080821115610d2257600080fd5b610d2e8c838d01610a65565b935060e08b0135915080821115610d4457600080fd5b50610d518b828c01610a65565b9150509295985092959890939650565b600181811c90821680610d7557607f821691505b60208210811415610d9657634e487b7160e01b600052602260045260246000fd5b50919050565b6000600019821415610dbe57634e487b7160e01b600052601160045260246000fd5b506001019056fea26469706673582212204a0e089c8950bebb63bf96877a3e70749fbe9b30da732c42fd985f236b78044064736f6c634300080b0033",
  "immutableReferences": {},
  "source": "// SPDX-License-Identifier: MIT\npragma solidity >=0.4.22 <0.9.0;\n\ncontract To_do_app {\n    uint256 public taskCount = 0;\n    uint256 public userCount = 0;\n\n    struct User {\n        uint256 id;\n        string name;\n        string email;\n    }\n\n    struct Task {\n        uint256 id;\n        string title;\n        string content;\n        string start_time;\n        string end_time;\n        bool remind;\n        bool completed;\n        string owner_name;\n        string owner_email;\n        string date;\n        string progress;\n    }\n\n    mapping(uint256 => Task) public tasks;\n    mapping(uint256 => User) public users;\n\n    constructor() {\n        createTasks(\n            \"First task\",\n            \"welcome to the to do Dapp\",\n            \"00:00\",\n            \"00:00\",\n            \"Jonathan\",\n            \"jonathan@gmail.com\",\n            \"Mon Jun 12 2023\",\n            \"100\"\n        );\n\n        createUser(\"jonathan\", \"jonathan@gmail.com\");\n    }\n\n    function createTasks(\n        string memory _title,\n        string memory _content,\n        string memory _start_time,\n        string memory _end_time,\n        string memory _owner_name,\n        string memory _owner_email,\n        string memory _date,\n        string memory _progress\n    ) public payable {\n        taskCount++;\n\n        tasks[taskCount] = Task(\n            taskCount,\n            _title,\n            _content,\n            _start_time,\n            _end_time,\n            true,\n            false,\n            _owner_name,\n            _owner_email,\n            _date,\n            _progress\n        );\n    }\n\n    function createUser(string memory _name, string memory _email)\n        public\n        payable\n    {\n        userCount++;\n        users[userCount] = User(userCount, _name, _email);\n    }\n}\n",
  "sourcePath": "/home/z-001/Desktop/to-do app/contracts/to_do_app.sol",
  "compiler": {
    "name": "solc",
    "version": "0.8.11+commit.d7f03943.Emscripten.clang"
  },
  "schemaVersion": "3.4.5",
  "updatedAt": "2022-02-23T15:46:18.426Z",
  "networkType": "ethereum",
  "devdoc": {
    "kind": "dev",
    "methods": {},
    "version": 1
  },
  "userdoc": {
    "kind": "user",
    "methods": {},
    "version": 1
  }
}