{
  "contractName": "To_do_app",
  "abi": [
    {
      "inputs": [],
      "stateMutability": "nonpayable",
      "type": "constructor"
    },
    {
      "inputs": [],
      "name": "taskCount",
      "outputs": [
        {
          "internalType": "uint256",
          "name": "",
          "type": "uint256"
        }
      ],
      "stateMutability": "view",
      "type": "function",
      "constant": true
    },
    {
      "inputs": [
        {
          "internalType": "uint256",
          "name": "",
          "type": "uint256"
        }
      ],
      "name": "tasks",
      "outputs": [
        {
          "internalType": "uint256",
          "name": "id",
          "type": "uint256"
        },
        {
          "internalType": "string",
          "name": "title",
          "type": "string"
        },
        {
          "internalType": "string",
          "name": "content",
          "type": "string"
        },
        {
          "internalType": "string",
          "name": "start_time",
          "type": "string"
        },
        {
          "internalType": "string",
          "name": "end_time",
          "type": "string"
        },
        {
          "internalType": "bool",
          "name": "remind",
          "type": "bool"
        },
        {
          "internalType": "bool",
          "name": "completed",
          "type": "bool"
        },
        {
          "internalType": "string",
          "name": "owner_name",
          "type": "string"
        },
        {
          "internalType": "string",
          "name": "owner_email",
          "type": "string"
        },
        {
          "internalType": "string",
          "name": "date",
          "type": "string"
        },
        {
          "internalType": "string",
          "name": "progress",
          "type": "string"
        }
      ],
      "stateMutability": "view",
      "type": "function",
      "constant": true
    },
    {
      "inputs": [],
      "name": "userCount",
      "outputs": [
        {
          "internalType": "uint256",
          "name": "",
          "type": "uint256"
        }
      ],
      "stateMutability": "view",
      "type": "function",
      "constant": true
    },
    {
      "inputs": [
        {
          "internalType": "uint256",
          "name": "",
          "type": "uint256"
        }
      ],
      "name": "users",
      "outputs": [
        {
          "internalType": "uint256",
          "name": "id",
          "type": "uint256"
        },
        {
          "internalType": "string",
          "name": "name",
          "type": "string"
        },
        {
          "internalType": "string",
          "name": "email",
          "type": "string"
        },
        {
          "internalType": "string",
          "name": "profile",
          "type": "string"
        }
      ],
      "stateMutability": "view",
      "type": "function",
      "constant": true
    },
    {
      "inputs": [
        {
          "internalType": "string",
          "name": "_title",
          "type": "string"
        },
        {
          "internalType": "string",
          "name": "_content",
          "type": "string"
        },
        {
          "internalType": "string",
          "name": "_start_time",
          "type": "string"
        },
        {
          "internalType": "string",
          "name": "_end_time",
          "type": "string"
        },
        {
          "internalType": "string",
          "name": "_owner_name",
          "type": "string"
        },
        {
          "internalType": "string",
          "name": "_owner_email",
          "type": "string"
        },
        {
          "internalType": "string",
          "name": "_date",
          "type": "string"
        },
        {
          "internalType": "string",
          "name": "_progress",
          "type": "string"
        }
      ],
      "name": "createTasks",
      "outputs": [],
      "stateMutability": "payable",
      "type": "function",
      "payable": true
    },
    {
      "inputs": [
        {
          "internalType": "string",
          "name": "_name",
          "type": "string"
        },
        {
          "internalType": "string",
          "name": "_email",
          "type": "string"
        },
        {
          "internalType": "string",
          "name": "_profile",
          "type": "string"
        }
      ],
      "name": "createUser",
      "outputs": [],
      "stateMutability": "payable",
      "type": "function",
      "payable": true
    }
  ],
  "bytecode": "0x60806040526000805560006001553480156200001a57600080fd5b50620001506040518060400160405280600a8152602001694669727374207461736b60b01b8152506040518060400160405280601981526020017f77656c636f6d6520746f2074686520746f20646f20446170700000000000000081525060405180604001604052806005815260200164030303a30360dc1b81525060405180604001604052806005815260200164030303a30360dc1b815250604051806040016040528060088152602001672537b730ba3430b760c11b815250604051806040016040528060128152602001716a6f6e617468616e40676d61696c2e636f6d60701b8152506040518060400160405280600f81526020016e4d6f6e204a756e203132203230323360881b8152506040518060400160405280600381526020016203130360ec1b815250620001d260201b60201c565b620001cc604051806040016040528060088152602001673537b730ba3430b760c11b815250604051806040016040528060128152602001716a6f6e617468616e40676d61696c2e636f6d60701b8152506040518060400160405280600781526020016670726f66696c6560c81b8152506200038960201b60201c565b62000542565b600080549080620001e383620004db565b919050555060405180610160016040528060005481526020018981526020018881526020018781526020018681526020016001151581526020016000151581526020018581526020018481526020018381526020018281525060026000805481526020019081526020016000206000820151816000015560208201518160010190805190602001906200027892919062000435565b50604082015180516200029691600284019160209091019062000435565b5060608201518051620002b491600384019160209091019062000435565b5060808201518051620002d291600484019160209091019062000435565b5060a082015160058201805460c085015115156101000261ff00199315159390931661ffff199091161791909117905560e082015180516200031f91600684019160209091019062000435565b5061010082015180516200033e91600784019160209091019062000435565b5061012082015180516200035d91600884019160209091019062000435565b5061014082015180516200037c91600984019160209091019062000435565b5050505050505050505050565b600180549060006200039b83620004db565b90915550506040805160808101825260018054808352602080840188815284860188905260608501879052600092835260038252949091208351815593518051939493620003f193850192919091019062000435565b50604082015180516200040f91600284019160209091019062000435565b50606082015180516200042d91600384019160209091019062000435565b505050505050565b828054620004439062000505565b90600052602060002090601f016020900481019282620004675760008555620004b2565b82601f106200048257805160ff1916838001178555620004b2565b82800160010185558215620004b2579182015b82811115620004b257825182559160200191906001019062000495565b50620004c0929150620004c4565b5090565b5b80821115620004c05760008155600101620004c5565b6000600019821415620004fe57634e487b7160e01b600052601160045260246000fd5b5060010190565b600181811c908216806200051a57607f821691505b602082108114156200053c57634e487b7160e01b600052602260045260246000fd5b50919050565b610ee780620005526000396000f3fe6080604052600436106100555760003560e01c806307973ccf1461005a578063365b98b21461008357806359ae069b146100b35780638d977672146100c8578063b6cb58a5146100ff578063c162453214610115575b600080fd5b34801561006657600080fd5b5061007060015481565b6040519081526020015b60405180910390f35b34801561008f57600080fd5b506100a361009e366004610a67565b610128565b60405161007a9493929190610acd565b6100c66100c1366004610bba565b6102e9565b005b3480156100d457600080fd5b506100e86100e3366004610a67565b61038d565b60405161007a9b9a99989796959493929190610c42565b34801561010b57600080fd5b5061007060005481565b6100c6610123366004610d0d565b610829565b6003602052600090815260409020805460018201805491929161014a90610e4d565b80601f016020809104026020016040519081016040528092919081815260200182805461017690610e4d565b80156101c35780601f10610198576101008083540402835291602001916101c3565b820191906000526020600020905b8154815290600101906020018083116101a657829003601f168201915b5050505050908060020180546101d890610e4d565b80601f016020809104026020016040519081016040528092919081815260200182805461020490610e4d565b80156102515780601f1061022657610100808354040283529160200191610251565b820191906000526020600020905b81548152906001019060200180831161023457829003601f168201915b50505050509080600301805461026690610e4d565b80601f016020809104026020016040519081016040528092919081815260200182805461029290610e4d565b80156102df5780601f106102b4576101008083540402835291602001916102df565b820191906000526020600020905b8154815290600101906020018083116102c257829003601f168201915b5050505050905084565b600180549060006102f983610e88565b9091555050604080516080810182526001805480835260208084018881528486018890526060850187905260009283526003825294909120835181559351805193949361034d9385019291909101906109ce565b50604082015180516103699160028401916020909101906109ce565b50606082015180516103859160038401916020909101906109ce565b505050505050565b600260205260009081526040902080546001820180549192916103af90610e4d565b80601f01602080910402602001604051908101604052809291908181526020018280546103db90610e4d565b80156104285780601f106103fd57610100808354040283529160200191610428565b820191906000526020600020905b81548152906001019060200180831161040b57829003601f168201915b50505050509080600201805461043d90610e4d565b80601f016020809104026020016040519081016040528092919081815260200182805461046990610e4d565b80156104b65780601f1061048b576101008083540402835291602001916104b6565b820191906000526020600020905b81548152906001019060200180831161049957829003601f168201915b5050505050908060030180546104cb90610e4d565b80601f01602080910402602001604051908101604052809291908181526020018280546104f790610e4d565b80156105445780601f1061051957610100808354040283529160200191610544565b820191906000526020600020905b81548152906001019060200180831161052757829003601f168201915b50505050509080600401805461055990610e4d565b80601f016020809104026020016040519081016040528092919081815260200182805461058590610e4d565b80156105d25780601f106105a7576101008083540402835291602001916105d2565b820191906000526020600020905b8154815290600101906020018083116105b557829003601f168201915b505050506005830154600684018054939460ff80841695610100909404169350916105fc90610e4d565b80601f016020809104026020016040519081016040528092919081815260200182805461062890610e4d565b80156106755780601f1061064a57610100808354040283529160200191610675565b820191906000526020600020905b81548152906001019060200180831161065857829003601f168201915b50505050509080600701805461068a90610e4d565b80601f01602080910402602001604051908101604052809291908181526020018280546106b690610e4d565b80156107035780601f106106d857610100808354040283529160200191610703565b820191906000526020600020905b8154815290600101906020018083116106e657829003601f168201915b50505050509080600801805461071890610e4d565b80601f016020809104026020016040519081016040528092919081815260200182805461074490610e4d565b80156107915780601f1061076657610100808354040283529160200191610791565b820191906000526020600020905b81548152906001019060200180831161077457829003601f168201915b5050505050908060090180546107a690610e4d565b80601f01602080910402602001604051908101604052809291908181526020018280546107d290610e4d565b801561081f5780601f106107f45761010080835404028352916020019161081f565b820191906000526020600020905b81548152906001019060200180831161080257829003601f168201915b505050505090508b565b60008054908061083883610e88565b919050555060405180610160016040528060005481526020018981526020018881526020018781526020018681526020016001151581526020016000151581526020018581526020018481526020018381526020018281525060026000805481526020019081526020016000206000820151816000015560208201518160010190805190602001906108cb9291906109ce565b50604082015180516108e79160028401916020909101906109ce565b50606082015180516109039160038401916020909101906109ce565b506080820151805161091f9160048401916020909101906109ce565b5060a082015160058201805460c085015115156101000261ff00199315159390931661ffff199091161791909117905560e0820151805161096a9160068401916020909101906109ce565b5061010082015180516109879160078401916020909101906109ce565b5061012082015180516109a49160088401916020909101906109ce565b5061014082015180516109c19160098401916020909101906109ce565b5050505050505050505050565b8280546109da90610e4d565b90600052602060002090601f0160209004810192826109fc5760008555610a42565b82601f10610a1557805160ff1916838001178555610a42565b82800160010185558215610a42579182015b82811115610a42578251825591602001919060010190610a27565b50610a4e929150610a52565b5090565b5b80821115610a4e5760008155600101610a53565b600060208284031215610a7957600080fd5b5035919050565b6000815180845260005b81811015610aa657602081850181015186830182015201610a8a565b81811115610ab8576000602083870101525b50601f01601f19169290920160200192915050565b848152608060208201526000610ae66080830186610a80565b8281036040840152610af88186610a80565b90508281036060840152610b0c8185610a80565b979650505050505050565b634e487b7160e01b600052604160045260246000fd5b600082601f830112610b3e57600080fd5b813567ffffffffffffffff80821115610b5957610b59610b17565b604051601f8301601f19908116603f01168101908282118183101715610b8157610b81610b17565b81604052838152866020858801011115610b9a57600080fd5b836020870160208301376000602085830101528094505050505092915050565b600080600060608486031215610bcf57600080fd5b833567ffffffffffffffff80821115610be757600080fd5b610bf387838801610b2d565b94506020860135915080821115610c0957600080fd5b610c1587838801610b2d565b93506040860135915080821115610c2b57600080fd5b50610c3886828701610b2d565b9150509250925092565b60006101608d8352806020840152610c5c8184018e610a80565b90508281036040840152610c70818d610a80565b90508281036060840152610c84818c610a80565b90508281036080840152610c98818b610a80565b89151560a0850152905087151560c084015282810360e0840152610cbc8188610a80565b9050828103610100840152610cd18187610a80565b9050828103610120840152610ce68186610a80565b9050828103610140840152610cfb8185610a80565b9e9d5050505050505050505050505050565b600080600080600080600080610100898b031215610d2a57600080fd5b883567ffffffffffffffff80821115610d4257600080fd5b610d4e8c838d01610b2d565b995060208b0135915080821115610d6457600080fd5b610d708c838d01610b2d565b985060408b0135915080821115610d8657600080fd5b610d928c838d01610b2d565b975060608b0135915080821115610da857600080fd5b610db48c838d01610b2d565b965060808b0135915080821115610dca57600080fd5b610dd68c838d01610b2d565b955060a08b0135915080821115610dec57600080fd5b610df88c838d01610b2d565b945060c08b0135915080821115610e0e57600080fd5b610e1a8c838d01610b2d565b935060e08b0135915080821115610e3057600080fd5b50610e3d8b828c01610b2d565b9150509295985092959890939650565b600181811c90821680610e6157607f821691505b60208210811415610e8257634e487b7160e01b600052602260045260246000fd5b50919050565b6000600019821415610eaa57634e487b7160e01b600052601160045260246000fd5b506001019056fea26469706673582212205ad9f80a025cbebf11a106e0a25e8fcbb49d11eac42fb78c51c3272fcecf6a8f64736f6c634300080b0033",
  "immutableReferences": {},
  "source": "// SPDX-License-Identifier: MIT\npragma solidity >=0.4.22 <0.9.0;\n\ncontract To_do_app {\n    uint256 public taskCount = 0;\n    uint256 public userCount = 0;\n\n    struct User {\n        uint256 id;\n        string name;\n        string email;\n        string profile;\n    }\n\n    struct Task {\n        uint256 id;\n        string title;\n        string content;\n        string start_time;\n        string end_time;\n        bool remind;\n        bool completed;\n        string owner_name;\n        string owner_email;\n        string date;\n        string progress;\n    }\n\n    mapping(uint256 => Task) public tasks;\n    mapping(uint256 => User) public users;\n\n    constructor() {\n        createTasks(\n            \"First task\",\n            \"welcome to the to do Dapp\",\n            \"00:00\",\n            \"00:00\",\n            \"Jonathan\",\n            \"jonathan@gmail.com\",\n            \"Mon Jun 12 2023\",\n            \"100\"\n        );\n\n        createUser(\"jonathan\", \"jonathan@gmail.com\", \"profile\");\n    }\n\n    function createTasks(\n        string memory _title,\n        string memory _content,\n        string memory _start_time,\n        string memory _end_time,\n        string memory _owner_name,\n        string memory _owner_email,\n        string memory _date,\n        string memory _progress\n    ) public payable {\n        taskCount++;\n\n        tasks[taskCount] = Task(\n            taskCount,\n            _title,\n            _content,\n            _start_time,\n            _end_time,\n            true,\n            false,\n            _owner_name,\n            _owner_email,\n            _date,\n            _progress\n        );\n    }\n\n    function createUser(\n        string memory _name,\n        string memory _email,\n        string memory _profile\n    ) public payable {\n        userCount++;\n        users[userCount] = User(userCount, _name, _email, _profile);\n    }\n}\n",
  "sourcePath": "/home/z-001/Desktop/to-do app/contracts/to_do_app.sol",
  "compiler": {
    "name": "solc",
    "version": "0.8.11+commit.d7f03943.Emscripten.clang"
  },
  "schemaVersion": "3.4.5",
  "updatedAt": "2022-02-24T11:50:38.103Z",
  "networkType": "ethereum",
  "devdoc": {
    "kind": "dev",
    "methods": {},
    "version": 1
  },
  "userdoc": {
    "kind": "user",
    "methods": {},
    "version": 1
  }
}