{
  "contractName": "To_do_app",
  "abi": [
    {
      "inputs": [],
      "stateMutability": "nonpayable",
      "type": "constructor"
    },
    {
      "inputs": [],
      "name": "taskCount",
      "outputs": [
        {
          "internalType": "uint256",
          "name": "",
          "type": "uint256"
        }
      ],
      "stateMutability": "view",
      "type": "function",
      "constant": true
    },
    {
      "inputs": [
        {
          "internalType": "uint256",
          "name": "",
          "type": "uint256"
        }
      ],
      "name": "tasks",
      "outputs": [
        {
          "internalType": "uint256",
          "name": "id",
          "type": "uint256"
        },
        {
          "internalType": "string",
          "name": "content",
          "type": "string"
        },
        {
          "internalType": "bool",
          "name": "remind",
          "type": "bool"
        },
        {
          "internalType": "string",
          "name": "start_time",
          "type": "string"
        },
        {
          "internalType": "string",
          "name": "end_time",
          "type": "string"
        },
        {
          "internalType": "bool",
          "name": "completed",
          "type": "bool"
        },
        {
          "internalType": "string",
          "name": "owner_name",
          "type": "string"
        },
        {
          "internalType": "string",
          "name": "owner_email",
          "type": "string"
        }
      ],
      "stateMutability": "view",
      "type": "function",
      "constant": true
    },
    {
      "inputs": [
        {
          "internalType": "string",
          "name": "_content",
          "type": "string"
        },
        {
          "internalType": "string",
          "name": "_start_time",
          "type": "string"
        },
        {
          "internalType": "string",
          "name": "_end_time",
          "type": "string"
        },
        {
          "internalType": "string",
          "name": "_owner_name",
          "type": "string"
        },
        {
          "internalType": "string",
          "name": "_owner_email",
          "type": "string"
        }
      ],
      "name": "createTasks",
      "outputs": [],
      "stateMutability": "nonpayable",
      "type": "function"
    }
  ],
  "bytecode": "0x6080604052600080553480156200001557600080fd5b50620000e46040518060400160405280601981526020017f77656c636f6d6520746f2074686520746f20646f20446170700000000000000081525060405180604001604052806005815260200164030303a30360dc1b81525060405180604001604052806005815260200164030303a30360dc1b815250604051806040016040528060088152602001672537b730ba3430b760c11b815250604051806040016040528060128152602001716a6f6e617468616e40676d61696c2e636f6d60701b815250620000ea60201b60201c565b6200032d565b600080549080620000fb83620002c6565b909155505060408051610100810182526000805480835260208084018a81526001858701819052606086018b9052608086018a905260a0860185905260c0860189905260e086018890529284528282529490922083518155935180519394936200016e9392850192919091019062000220565b50604082015160028201805460ff191691151591909117905560608201518051620001a491600384019160209091019062000220565b5060808201518051620001c291600484019160209091019062000220565b5060a082015160058201805460ff191691151591909117905560c08201518051620001f891600684019160209091019062000220565b5060e082015180516200021691600784019160209091019062000220565b5050505050505050565b8280546200022e90620002f0565b90600052602060002090601f0160209004810192826200025257600085556200029d565b82601f106200026d57805160ff19168380011785556200029d565b828001600101855582156200029d579182015b828111156200029d57825182559160200191906001019062000280565b50620002ab929150620002af565b5090565b5b80821115620002ab5760008155600101620002b0565b6000600019821415620002e957634e487b7160e01b600052601160045260246000fd5b5060010190565b600181811c908216806200030557607f821691505b602082108114156200032757634e487b7160e01b600052602260045260246000fd5b50919050565b61085c806200033d6000396000f3fe608060405234801561001057600080fd5b50600436106100405760003560e01c8062efe197146100455780638d9776721461005a578063b6cb58a51461008a575b600080fd5b610058610053366004610601565b6100a1565b005b61006d6100683660046106d3565b6101cb565b604051610081989796959493929190610739565b60405180910390f35b61009360005481565b604051908152602001610081565b6000805490806100b0836107c2565b909155505060408051610100810182526000805480835260208084018a81526001858701819052606086018b9052608086018a905260a0860185905260c0860189905260e08601889052928452828252949092208351815593518051939493610121939285019291909101906104c5565b50604082015160028201805460ff1916911515919091179055606082015180516101559160038401916020909101906104c5565b50608082015180516101719160048401916020909101906104c5565b5060a082015160058201805460ff191691151591909117905560c082015180516101a59160068401916020909101906104c5565b5060e082015180516101c19160078401916020909101906104c5565b5050505050505050565b6001602081905260009182526040909120805491810180546101ec906107eb565b80601f0160208091040260200160405190810160405280929190818152602001828054610218906107eb565b80156102655780601f1061023a57610100808354040283529160200191610265565b820191906000526020600020905b81548152906001019060200180831161024857829003601f168201915b5050506002840154600385018054949560ff909216949193509150610289906107eb565b80601f01602080910402602001604051908101604052809291908181526020018280546102b5906107eb565b80156103025780601f106102d757610100808354040283529160200191610302565b820191906000526020600020905b8154815290600101906020018083116102e557829003601f168201915b505050505090806004018054610317906107eb565b80601f0160208091040260200160405190810160405280929190818152602001828054610343906107eb565b80156103905780601f1061036557610100808354040283529160200191610390565b820191906000526020600020905b81548152906001019060200180831161037357829003601f168201915b5050506005840154600685018054949560ff9092169491935091506103b4906107eb565b80601f01602080910402602001604051908101604052809291908181526020018280546103e0906107eb565b801561042d5780601f106104025761010080835404028352916020019161042d565b820191906000526020600020905b81548152906001019060200180831161041057829003601f168201915b505050505090806007018054610442906107eb565b80601f016020809104026020016040519081016040528092919081815260200182805461046e906107eb565b80156104bb5780601f10610490576101008083540402835291602001916104bb565b820191906000526020600020905b81548152906001019060200180831161049e57829003601f168201915b5050505050905088565b8280546104d1906107eb565b90600052602060002090601f0160209004810192826104f35760008555610539565b82601f1061050c57805160ff1916838001178555610539565b82800160010185558215610539579182015b8281111561053957825182559160200191906001019061051e565b50610545929150610549565b5090565b5b80821115610545576000815560010161054a565b634e487b7160e01b600052604160045260246000fd5b600082601f83011261058557600080fd5b813567ffffffffffffffff808211156105a0576105a061055e565b604051601f8301601f19908116603f011681019082821181831017156105c8576105c861055e565b816040528381528660208588010111156105e157600080fd5b836020870160208301376000602085830101528094505050505092915050565b600080600080600060a0868803121561061957600080fd5b853567ffffffffffffffff8082111561063157600080fd5b61063d89838a01610574565b9650602088013591508082111561065357600080fd5b61065f89838a01610574565b9550604088013591508082111561067557600080fd5b61068189838a01610574565b9450606088013591508082111561069757600080fd5b6106a389838a01610574565b935060808801359150808211156106b957600080fd5b506106c688828901610574565b9150509295509295909350565b6000602082840312156106e557600080fd5b5035919050565b6000815180845260005b81811015610712576020818501810151868301820152016106f6565b81811115610724576000602083870101525b50601f01601f19169290920160200192915050565b60006101008a83528060208401526107538184018b6106ec565b90508815156040840152828103606084015261076f81896106ec565b9050828103608084015261078381886106ec565b905085151560a084015282810360c084015261079f81866106ec565b905082810360e08401526107b381856106ec565b9b9a5050505050505050505050565b60006000198214156107e457634e487b7160e01b600052601160045260246000fd5b5060010190565b600181811c908216806107ff57607f821691505b6020821081141561082057634e487b7160e01b600052602260045260246000fd5b5091905056fea26469706673582212206ba8e2bd5dfb3a544db9f1eb2fab86de80085a20d0eb17c81af10924c6a6d4e764736f6c634300080b0033",
  "immutableReferences": {},
  "source": "// SPDX-License-Identifier: MIT\npragma solidity >=0.4.22 <0.9.0;\n\ncontract To_do_app {\n    uint256 public taskCount = 0;\n\n    struct Task {\n        uint256 id;\n        string content;\n        bool remind;\n        string start_time;\n        string end_time;\n        bool completed;\n        string owner_name;\n        string owner_email;\n    }\n\n    mapping(uint256 => Task) public tasks;\n\n    constructor() {\n        createTasks(\n            \"welcome to the to do Dapp\",\n            \"00:00\",\n            \"00:00\",\n            \"Jonathan\",\n            \"jonathan@gmail.com\"\n        );\n    }\n\n    function createTasks(\n        string memory _content,\n        string memory _start_time,\n        string memory _end_time,\n        string memory _owner_name,\n        string memory _owner_email\n    ) public {\n        taskCount++;\n\n        tasks[taskCount] = Task(\n            taskCount,\n            _content,\n            true,\n            _start_time,\n            _end_time,\n            false,\n            _owner_name,\n            _owner_email\n        );\n    }\n}\n",
  "sourcePath": "/home/z-001/Desktop/to-do app/contracts/to_do_app.sol",
  "compiler": {
    "name": "solc",
    "version": "0.8.11+commit.d7f03943.Emscripten.clang"
  },
  "schemaVersion": "3.4.5",
  "updatedAt": "2022-02-22T21:17:02.043Z",
  "networkType": "ethereum",
  "devdoc": {
    "kind": "dev",
    "methods": {},
    "version": 1
  },
  "userdoc": {
    "kind": "user",
    "methods": {},
    "version": 1
  }
}